0120498390570000PEN20171213123456789012345678
02MANRIQUE MANRIQUE JORGE PORFIR00383CUOTA-NOV2017                              0000000000029000000000000029000000000000000001234000001201712120101     
02CHIRINOS TEJADA FREDY ALBERTO 00864CUOTA-MAR2017                              0000000000052000000000000052000000000000000001234000001201712120101     
02CHIRINOS TEJADA FREDY ALBERTO 00864CUOTA-ABR2017                              0000000000052000000000000052000000000000000001234000001201712120101     
02ZUÑIGA FLORES VICTOR WILLY    01120CUOTA-SEP2017                              0000000000053000000000000053000000000000000001234000001201712120101     
02ZUÑIGA FLORES VICTOR WILLY    01120CUOTA-OCT2017                              0000000000053000000000000053000000000000000001234000001201712120101     
02ZUÑIGA FLORES VICTOR WILLY    01120CUOTA-NOV2017                              0000000000053000000000000053000000000000000001234000001201712120101     
03000000002000000000000400000000000000400000000000000000